:100000000C942A000C9447000C9447000C94470071
:100010000C9447000C94AD370C94EA370C944700CD
:100020000C9447000C94DA370C9447000C9420375A
:100030000C9447000C9447000C9447000C94470024
:100040000C9447000C9447000C9447000C94470014
:100050000C94470011241FBECFE5D8E0DEBFCDBF12
:1000600011E0A0E6B0E0E0E0F5E702C005900D92F7
:10007000A439B107D9F711E0A4E9B1E001C01D929C
:10008000A53DB107E1F70E9443390C947E3A0C94E8
:100090000000A0E3B0E0EFE4F0E00C94473AA8E001
:1000A0004E010894811C911CF401BA2F1192BA954B
:1000B000E9F729833A834B835C836D837E838F8347
:1000C0009887CE010996FC011192AA95E9F7A986B5
:1000D000BA86CB86DC86ED86FE860F87188B298153
:1000E0003A814B815C812DA73EA74FA758AB790180
:1000F0008A018FEF9FEFA0E0B0E0E822F9220A2307
:100100001B231A014424552429853A854B855C8597
:1001100029A73AA74BA75CA759016A01A822B922CF
:10012000CA22DB223A0188249924C601B501A8011C
:1001300097010E94D7396DA37EA38FA398A7C4010E
:10014000B3010E94D73969A37AA38BA39CA3C601EC
:10015000B501A20191010E94D7397B018C01C40134
:10016000B3010E94D7395B016C0189A19AA1ABA1AF
:10017000BCA18E0D9F1DA01FB11F89A39AA3ABA385
:10018000BCA32DA13EA14FA158A5CA01AA27BB27F8
:1001900029A13AA14BA15CA1280F391F4A1F5B1F5F
:1001A00029A33AA34BA35CA32E153F054007510793
:1001B00040F480E090E0A1E0B0E0A80EB91ECA1EB5
:1001C000DB1E89A19AA1ABA1BCA19D0144275527A3
:1001D0002A0D3B1D4C1D5D1D2D8F3E8F4F8F58A34B
:1001E0006C01BB24AA248DA19EA1AFA1B8A5A070CB
:1001F000B070A80EB91ECA1EDB1EA98EBA8ECB8E99
:10020000DC8E9A8C8B8C7C8C9E8D6F8D78A1FE0100
:10021000719688E0DF011D928A95E9F72D8B9E8B00
:100220006F8B788F2D853E854F8558896DA57EA56E
:100230008FA598A90E94D7397B018C012D813E8121
:100240004F81588569A57AA58BA59CA50E94D739B1
:10025000E60EF71E081F191F6D897E898F89988DFC
:100260006E0D7F1D801F911F6D8B7E8B8F8B988FE6
:10027000EE892A2D392D482D572D7E2F8F89988D67
:10028000E096E2E10C94633AEF92FF920F93DF93D2
:10029000CF93CDB7DEB760970FB6F894DEBF0FBE31
:1002A000CDBFA82F002309F461C07E010894E11C92
:1002B000F11C88E0F70111928A95E9F729833A83C6
:1002C0004B835C836D837E83AF83988780E2801B42
:1002D000E82FFF27E7FDF0954D815E816F817885DE
:1002E000181684F01D861E861F86188A882799276F
:1002F0008E1B9F0B04C076956795579547958A95F9
:10030000D2F728C0202F332727FD3095DB01CA0103
:10031000022E04C0B695A795979587950A94D2F7B3
:100320008D879E87AF87B88B04C0440F551F661F0B
:10033000771FEA95D2F789819A81AB81BC8104C08D
:10034000B695A795979587952A95D2F7482B592B5F
:100350006A2B7B2B49875A876B877C8729853A854F
:100360004B855C856D857E85AF8598898A2F6096E3
:100370000FB6F894DEBF0FBECDBFCF91DF910F91C6
:10038000FF90EF900895EF92FF920F93DF93CF933A
:10039000CDB7DEB760970FB6F894DEBF0FBECDBF06
:1003A000A82F002309F461C07E010894E11CF11C10
:1003B00088E0F70111928A95E9F729833A834B8304
:1003C0005C836D837E83AF83988780E2801BE82FF8
:1003D000FF27E7FDF09549815A816B817C811816D2
:1003E00084F019861A861B861C86882799278E1BFF
:1003F0009F0B04C0440F551F661F771F8A95D2F7C5
:1004000028C0202F332727FD3095DB01CA01022E9B
:1004100004C0880F991FAA1FBB1F0A94D2F78987AF
:100420009A87AB87BC8704C07695679557954795A3
:10043000EA95D2F78D819E81AF81B88504C0880F7F
:10044000991FAA1FBB1F2A95D2F7482B592B6A2B3D
:100450007B2B4D875E876F87788B29853A854B8507
:100460005C856D857E85AF8598898A2F60960FB6ED
:10047000F894DEBF0FBECDBFCF91DF910F91FF90FB
:10048000EF900895EF92FF920F931F937B018C01E1
:1004900020E030E040E05FE40E94D31288238CF03B
:1004A000C801B70120E030E040E05FE40E949F1007
:1004B0000E9433139B01AC01205030404040504813
:1004C00006C0C801B7010E9433139B01AC01B901FA
:1004D000CA011F910F91FF90EF900895AEE5B0E033
:1004E000E4E7F2E00C94473AA8E04E010894811C3E
:1004F000911CF4016A2E11926A94E9F729833A83D8
:100500004B835C836D837E838F839887CE010996AE
:10051000FC011192AA95E9F7A986BA86CB86DC86FA
:10052000ED86FE860F87188B29843A844B845C8481
:10053000ED84FE840F85188969807A808B809C8089
:100540006DA67EA68FA698AA6D807E808F809884E7
:10055000E114F1040105110509F0B3C36214730439
:100560008404950408F03DC100E0201600E0300648
:1005700001E0400600E0500688F41FEF2116310428
:100580004104510439F030F048E0E42EF12C012D03
:10059000112D18C0EE24FF24870114C020E022167C
:1005A00020E0320620E0420621E0520630F038E139
:1005B000E32EF12C012D112D05C020E1E22EF12CAE
:1005C000012D112DD201C1010E2C04C0B695A795A5
:1005D000979587950A94D2F78D569F4FDC012C9101
:1005E00080E290E0A0E0B0E08E199F09A00BB10B73
:1005F0007C018D01E21AF10801091109E114F104ED
:1006000001051105A1F10E2C04C0220C331C441C61
:10061000551C0A94D2F7A40193010E2C04C0220F9A
:10062000331F441F551F0A94D2F780E290E08E19C1
:100630009F096DA47EA48FA498A804C09694879463
:10064000779467948A95D2F7622A732A842A952A26
:10065000ADA4BEA4CFA4D8A804C0AA0CBB1CCC1CBB
:10066000DD1CEA94D2F7ADA6BEA6CFA6D8AA620139
:10067000EE24FF24CDAADEAAEFAAF8AE92018101F2
:100680002070307009AF1AAF2BAF3CAFC401B3017B
:10069000A70196010E94253A7B018C01C401B30198
:1006A0002DA93EA94FA958AD0E94253AC901DA01EA
:1006B0003C014D01C401B30129AD3AAD4BAD5CAD78
:1006C0000E94D7399B01AC018701FF24EE24ADA421
:1006D000BEA4CFA4D8A8C601AA27BB27570168018A
:1006E000A82AB92ACA2ADB2AA216B306C406D50646
:1006F000E0F408946108710881089108A20CB31C09
:10070000C41CD51CA214B304C404D50470F0A216F2
:10071000B306C406D50648F4089461087108810838
:100720009108A20CB31CC41CD51CA21AB30AC40A9B
:10073000D50AC601B5012DA93EA94FA958AD0E9401
:10074000253A7B018C01C601B5012DA93EA94FA90F
:1007500058AD0E94253AC901DA015C016D01C6015C
:10076000B50129AD3AAD4BAD5CAD0E94D7399B01C7
:10077000AC018701FF24EE248DA59EA5AFA5B8A9E5
:10078000A070B070E82AF92A0A2B1B2BE216F30698
:1007900004071507C0F40894A108B108C108D108DE
:1007A000E20CF31C041D151DE214F30404051505E9
:1007B00050F0E216F3060407150728F40894A10880
:1007C000B108C108D108D30199278827860175018E
:1007D000E82AF92A0A2B1B2BE9AAFAAA0BAB1CABB5
:1007E000CFC4211431044104510471F461E070E07C
:1007F00080E090E020E030E040E050E00E94253AC8
:10080000C901DA011C012D0100E0201600E03006CC
:1008100001E0400600E0500688F41FEF2116310485
:100820004104510431F028F048E050E060E070E00D
:1008300017C040E050E060E070E012C020E02216F7
:1008400020E0320620E0420621E0520628F048E18E
:1008500050E060E070E004C040E150E060E070E033
:10086000D201C101042E04C0B695A795979587952E
:100870000A94D2F78D569F4FDC012C91E0E2EE2EC8
:10088000F12C012D112DD801C701841B950BA60B4E
:10089000B70B821B9109A109B1090097A105B10508
:1008A00061F464015301A218B308C408D50831E00B
:1008B000632E712C812C912C1EC16F968FAF6F9778
:1008C000082E04C0220C331C441C551C0A94D2F779
:1008D000EE2DE81B640153010E2E04C0D694C7947C
:1008E000B794A7940A94D2F7A40193016F960FAC22
:1008F0006F9704C0220F331F441F551F0A94D2F76D
:100900006DA47EA48FA498A80E2E04C096948794FC
:10091000779467940A94D2F784017301E22AF32A48
:10092000042B152BE9A6FAA60BA71CA732018824D5
:100930009924920181012070307021960CAF1DAF77
:100940002EAF3FAF2197C601B501A40193010E94CC
:10095000253A7B018C01C601B501A40193010E94D7
:10096000253AC901DA0125968CAF9DAFAEAFBFAF76
:100970002597BC01CD0121962CAD3DAD4EAD5FADAF
:1009800021970E94D7399B01AC018701FF24EE24F7
:10099000A9A4BAA4CBA4DCA4C601AA27BB275C01E6
:1009A0006D01AE28BF28C02AD12AA216B306C406FC
:1009B000D50660F525966CAD7DAD8EAD9FAD2597C6
:1009C000615070408040904025966CAF7DAF8EAFF7
:1009D0009FAF2597A20CB31CC41CD51CA214B30452
:1009E000C404D50498F0A216B306C406D50670F464
:1009F000615070408040904025966CAF7DAF8EAFC7
:100A00009FAF2597A20CB31CC41CD51CA21AB30A15
:100A1000C40AD50AC601B501A40193010E94253A72
:100A20007B018C01C601B501A40193010E94253A06
:100A3000C901DA013C014D01C401B30121962CAD7D
:100A40003DAD4EAD5FAD21970E94D7399B01AC0102
:100A50008701FF24EE2489A59AA5ABA5BCA5A070AB
:100A6000B07057016801A82AB92ACA2ADB2AA2163F
:100A7000B306C406D506E0F408946108710881083D
:100A80009108A20CB31CC41CD51CA214B304C4044A
:100A9000D50470F0A216B306C406D50648F408942F
:100AA0006108710881089108A20CB31CC41CD51CF4
:100AB0008DA59EA5AFA5B8A96F960FAC6F9704C082
:100AC000880F991FAA1FBB1F0A94D2F78DA79EA754
:100AD000AFA7B8ABA21AB30AC40AD50A2596ECACE4
:100AE000FDAC0EAD1FAD2597D70199278827682A41
:100AF000792A8A2A9B2A82012227332729960CAF3A
:100B00001DAF2EAF3FAF2997A201910140705070E9
:100B10002D962CAF3DAF4EAF5FAF2D97C601B501FF
:100B200029962CAD3DAD4EAD5FAD29970E94253A7B
:100B30007B018C01C601B50129962CAD3DAD4EADB2
:100B40005FAD29970E94253AC901DA0161968CAF01
:100B50009DAFAEAFBFAF6197BC01CD012D962CAD5F
:100B60003DAD4EAD5FAD2D970E94D7399B01AC01D5
:100B70008701FF24EE24ADA4BEA4CFA4D8A8C6014B
:100B8000AA27BB2757016801A82AB92ACA2ADB2A43
:100B9000A216B306C406D50660F561966CAD7DADB0
:100BA0008EAD9FAD619761507040804090406196DE
:100BB0006CAF7DAF8EAF9FAF6197A20CB31CC41C0E
:100BC000D51CA214B304C404D50498F0A216B3062D
:100BD000C406D50670F46150704080409040619624
:100BE0006CAF7DAF8EAF9FAF6197A20CB31CC41CDE
:100BF000D51CA21AB30AC40AD50AC601B5012996A2
:100C00002CAD3DAD4EAD5FAD29970E94253A7B01DD
:100C10008C01C601B50129962CAD3DAD4EAD5FAD41
:100C200029970E94253AC901DA015C016D01C601CC
:100C3000B5012D962CAD3DAD4EAD5FAD2D970E940B
:100C4000D7399B01AC018701FF24EE248DA59EA519
:100C5000AFA5B8A9A070B070E82AF92A0A2B1B2BFF
:100C6000E216F30604071507C0F40894A108B108BA
:100C7000C108D108E20CF31C041D151DE214F30495
:100C80000405150550F0E216F3060407150728F4CD
:100C90000894A108B108C108D1086196ECACFDAC7C
:100CA0000EAD1FAD6197D701992788279601850161
:100CB000082B192B2A2B3B2B09AB1AAB2BAB3CABCC
:100CC00062C26E147F048006910608F451C220E0CF
:100CD000E21620E0F20621E0020720E0120788F485
:100CE0003FEFE316F1040105110531F028F048E06B
:100CF00050E060E070E017C040E050E060E070E07D
:100D000012C040E0E41640E0F40640E0040741E091
:100D1000140728F048E150E060E070E004C040E1D2
:100D200050E060E070E0D801C701042E04C0B69521
:100D3000A795979587950A94D2F78D569F4FDC011A
:100D40002C9130E2A32EB12CC12CD12CD601C5019F
:100D5000841B950BA60BB70B821B9109A109B10946
:100D60000097A105B10589F4E614F70408051905F3
:100D700008F4F2C16DA47EA48FA498A86214730431
:100D80008404950408F0E8C1F3C16E968FAF6E97A6
:100D9000082E04C0EE0CFF1C001F111F0A94D2F78E
:100DA0006A2D681BD201C101062E04C0B695A79515
:100DB000979587950A94D2F75C016D01AE28BF28FC
:100DC000C02AD12AADA2BEA2CFA2D8A672016101CB
:100DD0006E960FAC6E9704C0CC0CDD1CEE1CFF1C95
:100DE0000A94D2F7C9A2DAA2EBA2FCA264015301D1
:100DF000062E04C0D694C794B794A7940A94D2F749
:100E0000D401C3016E960FAC6E9704C0880F991F72
:100E1000AA1FBB1F0A94D2F7EDA4FEA40FA518A920
:100E200004C016950795F794E7946A95D2F73701B1
:100E30004801682A792A8A2A9B2A6D8E7E8E8F8E97
:100E400098A2EDA0FEA00FA118A53801882499242E
:100E5000980187012070307065960CAF1DAF2EAFE2
:100E60003FAF6597C601B501A40193010E94253AE1
:100E70007B018C01C601B501A40193010E94253AB2
:100E8000C901DA011C012D01C201B10165962CAD29
:100E90003DAD4EAD5FAD65970E94D7399B01AC016A
:100EA0008701FF24EE24AD8CBE8CCF8CD8A0C60168
:100EB000AA27BB2757016801A82AB92ACA2ADB2A10
:100EC000A216B306C406D50600F508942108310819
:100ED00041085108EDA0FEA00FA118A5AE0CBF1C43
:100EE000C01ED11EAE14BF04C006D10670F0A216FB
:100EF000B306C406D50648F4089421083108410811
:100F00005108AE0CBF1CC01ED11EA21AB30AC40ADF
:100F1000D50AC601B501A40193010E94253A7B01BF
:100F20008C01C601B501A40193010E94253AC901B3
:100F3000DA013C014D01C401B30165962CAD3DAD14
:100F40004EAD5FAD65970E94D7399B01AC0187011B
:100F5000FF24EE248D8D9E8DAF8DB8A1A070B07052
:100F600057016801A82AB92ACA2ADB2AA216B306A1
:100F7000C406D50600F50894610871088108910837
:100F80006DA17EA18FA198A5A60EB71EC81ED91E61
:100F9000A616B706C806D90670F0A216B306C40690
:100FA000D50648F408946108710881089108A60ED6
:100FB000B71EC81ED91ED601C501821B930BA40BF8
:100FC000B50B898F9A8FAB8FBC8FD101992788275A
:100FD00064015301A82AB92ACA2ADB2AA9AABAAAF3
:100FE000CBAADCAA860175012FEF3FEF40E050E06D
:100FF000E222F32204231523A601662777276D96A4
:101000004CAF5DAF6EAF7FAF6D97A9A0BAA0CBA07C
:10101000DCA06FEF7FEF80E090E0A622B722C8222D
:10102000D92289A19AA1ABA1BCA11D0144245524B8
:10103000C801B701A60195010E94D73969966CAF26
:101040007DAF8EAF9FAF6997C801B701A201910133
:101050000E94D7393B014C016D966CAD7DAD8EADD4
:101060009FAD6D97A60195010E94D7397B018C0138
:101070006D966CAD7DAD8EAD9FAD6D97A20191016A
:101080000E94D7395B016C01A8019701260D371D1D
:10109000481D591D69966CAC7DAC8EAC9FAC6997B0
:1010A000C401AA27BB27280F391F4A1F5B1F2E1513
:1010B0003F054007510748F4E12CF12C61E0062F71
:1010C000112DAE0CBF1CC01ED11ECA01AA27BB2702
:1010D000BC01CD016A0D7B1D8C1D9D1D698C7A8C18
:1010E0008B8C9C8C661677068806990640F16615EF
:1010F00077058805990509F043C0D9019927882704
:1011000069962CAD3DAD4EAD5FAD699740705070A6
:10111000820F931FA41FB51F2DA53EA54FA558A94B
:101120006E960FAC6E9704C0220F331F441F551FDD
:101130000A94D2F7281739074A075B0708F509A967
:101140001AA92BA93CA9015010402040304009ABFE
:101150001AAB2BAB3CAB14C066247724430121E0CF
:1011600030E040E050E029AB3AAB4BAB5CAB0BC09E
:1011700066247724430119AA1AAA1BAA1CAA03C031
:10118000662477244301FE01719688E0DF011D92F9
:101190008A95E9F7A9A8BAA8CBA8DCA8A98ABA8A2F
:1011A000CB8ADC8A6D8A7E8A8F8A988E29A93A89B1
:1011B0004B895C89662D7E898F89988DC25ADF4F55
:1011C000E2E10C94633AABE5B0E0E9EEF8E00C94B0
:1011D000473AA8E04E010894811C911CF4016A2E44
:1011E00011926A94E9F729833A834B835C836D8378
:1011F0007E838F839887CE010996FC011192AA9570
:10120000E9F7A986BA86CB86DC86ED86FE860F874F
:10121000188B29843A844B845C84AD84BE84CF844B
:10122000D88829813A814B815C8169962FAF699773
:101230006A963FAF6A976B964FAF6B976C965FAFAE
:101240006C976C966CAC7DAC8EAC9FAC6C9769AABD
:101250007AAA8BAA9CAA6D817E818F8198853B0199
:101260004C016DAA7EAA8FAA98AEA114B104C10444
:10127000D10409F004C3621473048404950408F0D3
:1012800000C100E0201600E0300601E0400600E06A
:10129000500688F41FEF211631044104510439F03F
:1012A00030F088E0E82EF12C012D112D18C0EE242D
:1012B000FF24870114C040E0241640E0340640E0DB
:1012C000440641E0540630F0B8E1EB2EF12C012D3C
:1012D000112D05C0A0E1EA2EF12C012D112DD20116
:1012E000C1010E2C04C0B695A795979587950A94D1
:1012F000D2F78D569F4FDC012C9180E290E0A0E068
:10130000B0E08E199F09A00BB10B5C016D01A21A10
:10131000B108C108D108A9AEBAAECBAEDCAEA114FB
:10132000B104C104D10409F43FC069AD062E04C064
:10133000220C331C441C551C0A94D2F7A4019301BF
:10134000062E04C0220F331F441F551F0A94D2F7E4
:1013500080E290E08A199B096C96CCACDDACEEACD7
:10136000FFAC6C9704C0F694E794D794C7948A9521
:10137000D2F787017601E22AF32A042B152BEDAA76
:10138000FEAA0FAB18AF6C968CAD9DADAEADBFADE8
:101390006C9704C0880F991FAA1FBB1F6A95D2F7CC
:1013A00089AB9AABABABBCAB320188249924B201B8
:1013B000A1016070707021964CAF5DAF6EAF7FAFD2
:1013C00021976DA97EA98FA998ADA40193010E94D0
:1013D000253A7B018C016DA97EA98FA998ADA40146
:1013E00093010E94253ACA01B90121962CAD3DAD69
:1013F0004EAD5FAD21970E94D7399B01AC018701AB
:10140000FF24EE24A9A8BAA8CBA8DCA8C601AA2765
:10141000BB2757016801A82AB92ACA2ADB2AA216C3
:10142000B306C406D50690F4A20CB31CC41CD51C8C
:10143000A214B304C404D50448F0A216B306C4062B
:10144000D50620F4A20CB31CC41CD51CA21AB30AE6
:10145000C40AD50AC601B501A40193010E94253A28
:101460007B018C01C601B501A40193010E94253ABC
:10147000CA01B90121962CAD3DAD4EAD5FAD2197AE
:10148000BAC1211431044104510471F461E070E0E7
:1014900080E090E020E030E040E050E00E94253A1B
:1014A000C901DA011C012D0100E0201600E0300620
:1014B00001E0400600E0500688F41FEF21163104D9
:1014C0004104510439F030F068E0E62EF12C012D92
:1014D000112D18C0EE24FF24870114C040E024160B
:1014E00040E0340640E0440641E0540630F058E164
:1014F000E52EF12C012D112D05C040E1E42EF12C3B
:10150000012D112DD201C1010E2C04C0B695A79555
:10151000979587950A94D2F78D569F4FDC012C91B1
:1015200030E2A32EB12CC12CD12CD601C5018E19CD
:101530009F09A00BB10B7C018D01E21AF108010992
:101540001109E9AEFAAE0BAF1CAFE114F1040105CD
:10155000110539F464015301A218B308C408D50871
:10156000E2C0F9AC6896FFAE68970F2C04C0220C5D
:10157000331C441C551C0A94D2F78A2D8F19640120
:101580005301082E04C0D694C794B794A7940A9424
:10159000D2F7A401930104C0220F331F441F551F2B
:1015A000FA94D2F76C966CAC7DAC8EAC9FAC6C9719
:1015B00004C096948794779467948A95D2F78401AF
:1015C0007301E22AF32A042B152BEDA6FEA60FA722
:1015D00018AB320188249924B201A10160707070A7
:1015E00025964CAF5DAF6EAF7FAF2597C601B501B5
:1015F000A40193010E94253A7B018C01C601B5012B
:10160000A40193010E94253ACA01B90125962CAD87
:101610003DAD4EAD5FAD25970E94D7399B01AC0122
:101620008701FF24EE24ADA4BEA4CFA4D8A8C60190
:10163000AA27BB275C016D01AE28BF28C02AD12A8A
:10164000A216B306C406D50690F4A20CB31CC41CA3
:10165000D51CA214B304C404D50448F0A216B306E2
:10166000C406D50620F4A20CB31CC41CD51CA21AB7
:10167000B30AC40AD50AC601B501A40193010E94A8
:10168000253A7B018C01C601B501A40193010E949A
:10169000253ACA01B90125962CAD3DAD4EAD5FADE1
:1016A00025970E94D7399B01AC018701FF24EE24C6
:1016B0008DA59EA5AFA5B8A9A070B070570168010F
:1016C000A82AB92ACA2ADB2AA216B306C406D50656
:1016D00090F4A20CB31CC41CD51CA214B304C40403
:1016E000D50448F0A216B306C406D50620F4A20C11
:1016F000B31CC41CD51C6C96ECACFDAC0EAD1FAD80
:101700006C9768960FAC689704C0EE0CFF1C001F26
:10171000111F0A94D2F7E9AAFAAA0BAB1CABA21AC2
:10172000B30AC40AD50A320188249924B201A1015E
:101730006070707029964CAF5DAF6EAF7FAF299728
:10174000C601B501A40193010E94253A7B018C01D9
:10175000C601B501A40193010E94253ACA01B9014D
:1017600029962CAD3DAD4EAD5FAD29970E94D7397E
:101770009B01AC018701FF24EE24A9A8BAA8CBA83D
:10178000DCA8C601AA27BB2757016801A82AB92AE5
:10179000CA2ADB2AA216B306C406D50690F4A20C08
:1017A000B31CC41CD51CA214B304C404D50448F053
:1017B000A216B306C406D50620F4A20CB31CC41CA2
:1017C000D51CA21AB30AC40AD50AC601B501A401E0
:1017D00093010E94253A7B018C01C601B501A40149
:1017E00093010E94253ACA01B90129962CAD3DAD5D
:1017F0004EAD5FAD29970E94D7399B01AC0187019F
:10180000FF24EE2489A99AA9ABA9BCA9A070B07045
:10181000E82AF92A0A2B1B2BE216F3060407150700
:1018200090F4E20CF31C041D151DE214F3040405EE
:10183000150548F0E216F3060407150720F4E20C3C
:10184000F31C041D151DE21AF30A040B150BD80135
:10185000C70109AC04C0B695A795979587950A94DA
:10186000D2F7898B9A8BAB8BBC8B1D8A1E8A1F8A01
:10187000188E282F3A894B895C896D890CC36A14AC
:101880007B048C049D0408F409C300E0A01600E06A
:10189000B00601E0C00600E0D00688F41FEFA116F4
:1018A000B104C104D10439F030F028E0E22EF12C6B
:1018B000012D112D18C0EE24FF24870114C040E033
:1018C000A41640E0B40640E0C40641E0D40630F07F
:1018D00098E1E92EF12C012D112D05C080E1E82EB3
:1018E000F12C012D112DD601C5010E2C04C0B69589
:1018F000A795979587950A94D2F78D569F4FDC014F
:101900002C9180E290E0A0E0B0E08E199F09A00B3E
:10191000B10B821B9109A109B1090097A105B1057D
:1019200009F04FC0A614B704C804D90458F06C9647
:10193000ECACFDAC0EAD1FAD6C97E214F3040405E6
:10194000150568F16C96ECACFDAC0EAD1FAD6C9757
:10195000E218F30804091509A40193012A193B09A7
:101960004C095D09AA24BB2465016C966CAD7DAD64
:101970008EAD9FAD6C976E157F058007910728F49B
:10198000B1E0AB2EB12CC12CD12CDA01C9018A19DE
:101990009B09AC09BD098DAB9EABAFABB8AFE98A73
:1019A000FA8A0B8B1C8B6DA87EA88FA898AC6D8AC9
:1019B0007E8A8F8A988E2E2D3A894B895C896DA9F3
:1019C0006AC267968FAF6797A6019501082E04C07B
:1019D000220F331F441F551F0A94D2F7A0E2AA2EEC
:1019E000A81A6696AFAE6697D201C10104C0B6953B
:1019F000A79597958795AA94D2F76C017D01C22A85
:101A0000D32AE42AF52AC9A6DAA6EBA6FCA6820107
:101A1000710167960FAC679704C0EE0CFF1C001FA6
:101A2000111F0A94D2F7EDA2FEA20FA318A764011A
:101A3000530166960FAC669704C0D694C794B794CA
:101A4000A7940A94D2F7A401930167960FAC679705
:101A500004C0220F331F441F551F0A94D2F76C96FF
:101A60008CAD9DADAEADBFAD6C9766960FAC669775
:101A700004C0B695A795979587950A94D2F73C012F
:101A80004D01622A732A842A952A69A27AA28BA21E
:101A90009CA26C96ECACFDAC0EAD1FAD6C9767963E
:101AA0000FAC679704C0EE0CFF1C001F111F0A94B7
:101AB000D2F7ED8EFE8E0F8F18A349A55AA56BA500
:101AC0007CA53B0188249924607070702D964CAFE2
:101AD0005DAF6EAF7FAF2D97C601B501A401930135
:101AE0000E94253A7B018C01C601B501A401930136
:101AF0000E94253AC901DA011C012D01C201B10180
:101B00002D962CAD3DAD4EAD5FAD2D970E94D739D2
:101B10009B01AC018701FF24EE24A9A0BAA0CBA0B1
:101B2000DCA0C601AA27BB2757016801A82AB92A49
:101B3000CA2ADB2AA216B306C406D50600F5089405
:101B40002108310841085108E9A4FAA40BA51CA5F5
:101B5000AE0CBF1CC01ED11EAE14BF04C006D10601
:101B600070F0A216B306C406D50648F408942108FE
:101B7000310841085108AE0CBF1CC01ED11EA21A6C
:101B8000B30AC40AD50AC601B501A40193010E9493
:101B9000253A7B018C01C601B501A40193010E9485
:101BA000253AC901DA013C014D01C401B3012D966A
:101BB0002CAD3DAD4EAD5FAD2D970E94D7399B0149
:101BC000AC018701FF24EE2489A19AA1ABA1BCA19D
:101BD000A070B07057016801A82AB92ACA2ADB2A66
:101BE000A216B306C406D50600F50894610871086C
:101BF0008108910869A57AA58BA59CA5A60EB71E9C
:101C0000C81ED91EA616B706C806D90670F0A216B9
:101C1000B306C406D50648F4089461087108810823
:101C20009108A60EB71EC81ED91ED601C501821B7B
:101C3000930BA40BB50B898F9A8FAB8FBC8FD101FF
:101C40009927882784017301E82AF92A0A2B1B2B7C
:101C50004FEFA42E4FEFB42EC12CD12CAE20BF20BD
:101C6000C022D1227801002711276DA07EA08FA06D
:101C700098A44FEF5FEF60E070E064227522862247
:101C800097228DA19EA1AFA1B8A5BD018827992754
:101C900065966CAF7DAF8EAF9FAF6597C601B501FE
:101CA000A40193010E94D73961966CAF7DAF8EAFCE
:101CB0009FAF6197C601B50165962CAD3DAD4EADA8
:101CC0005FAD65970E94D7391B012C01C801B70190
:101CD000A40193010E94D7395B016C01C801B701CF
:101CE00065962CAD3DAD4EAD5FAD65970E94D73981
:101CF0007B018C01A6019501220D331D441D551D4C
:101D000061966CAC7DAC8EAC9FAC6197C401AA2788
:101D1000BB27280F391F4A1F5B1F2A153B054C059F
:101D20005D0548F4812C912CE1E0AE2EB12CE80C3D
:101D3000F91C0A1D1B1DCA01AA27BB2757016801F0
:101D4000A80EB91ECA1EDB1EA901332722276196E1
:101D50008CAD9DADAEADBFAD6197A070B070280FDA
:101D6000391F4A1F5B1FE98CFA8C0B8D1C8DEA14FE
:101D7000FB040C051D0570F0AE14BF04C006D106AF
:101D800069F56D8D7E8D8F8D98A16217730784071D
:101D9000950720F5DA01C9016DA07EA08FA098A457
:101DA00086199709A809B909E9A4FAA40BA51CA5E5
:101DB000AE18BF08C00AD10AEE24FF2487012817F5
:101DC00039074A075B0728F421E0E22EF12C012DA8
:101DD000112DAE18BF08C00AD10A02C0DA01C9012C
:101DE0006D8C7E8C8F8C98A0681A790A8A0A9B0A5F
:101DF000498D5A8D6B8D7C8D4A195B096C097D0963
:101E00005A016B012224332421016D8D7E8D8F8D2B
:101E100098A1661577058805990528F481E0282E94
:101E2000312C412C512C86017501E218F30804096C
:101E30001509A801970166960FAC669704C0220F9A
:101E4000331F441F551F0A94D2F7D401C30167966C
:101E50000FAC679704C0B695A795979587950A9498
:101E6000D2F7282B392B4A2B5B2B298B3A8B4B8BA8
:101E70005C8B67960FAC679704C016950795F7942F
:101E8000E7940A94D2F7ED8AFE8A0F8B188F3A896D
:101E90004B895C896E2D7E898F89988DC55ADF4F5D
:101EA000E2E10C94633AA0E0B0E0E9E5FFE00C94D5
:101EB000473ADC012B01FA019C91923008F439C1B8
:101EC000EB018881823008F433C1943069F48430A6
:101ED00009F02FC111969C9111978981981709F4E7
:101EE00028C1ABE8B0E025C1843009F421C18230BB
:101EF000A9F4923009F01DC19A01AD0188E0EA0110
:101F00000990AE01E90109929E018150C1F7E201F9
:101F1000898111969C918923818308C1923009F4AB
:101F200007C112962D903C901397EB018A819B81FB
:101F30001496AD90BD90CD90DC901797EC80FD800D
:101F40000E811F819101281B390BB90137FF04C095
:101F500066277727621B730B603271050CF061C036
:101F6000121613066CF537014801062E04C096942C
:101F70008794779467940A94D2F721E030E040E0A8
:101F800050E004C0220F331F441F551F6A95D2F73B
:101F900021503040404050402E213F2140235123CA
:101FA000211531054105510521F021E030E040E0E7
:101FB00050E079018A01E628F728082919293CC050
:101FC000232BD1F1260E371E35014601062E04C003
:101FD00096948794779467940A94D2F721E030E03E
:101FE00040E050E004C0220F331F441F551F6A9584
:101FF000D2F721503040404050402A213B214C2113
:102000005D21211531054105510521F021E030E028
:1020100040E050E059016A01A628B728C828D9280D
:102020000BC0821593052CF01C01AA24BB2465016A
:1020300003C0EE24FF24870111969C91D2011196D2
:102040008C91981709F445C0992339F0A80197019C
:102050002A193B094C095D0906C0A60195012E19F4
:102060003F09400B510B57FD08C011823382228279
:1020700024833583468357831DC081E08183338267
:10208000228288279927DC01821B930BA40BB50BB6
:1020900084839583A683B7830DC0220F331F441F0B
:1020A000551F24833583468357838281938101970B
:1020B000938382832481358146815781DA01C90166
:1020C0000197A109B1098F5F9F4FAF4FBF4328F31D
:1020D0000BC0918333822282EA0CFB1C0C1D1D1D58
:1020E000E482F5820683178383E08083248135812F
:1020F0004681578157FF1AC0C901AA2797FDA095AD
:10210000BA2F81709070A070B07056954795379532
:102110002795822B932BA42BB52B84839583A683A1
:10212000B78382819381019693838283DF0101C00B
:10213000D201CD01CDB7DEB7E2E10C94633AA0E263
:10214000B0E0E5EAF0E10C94533A69837A838B833B
:102150009C832D833E834F835887E9E0EE2EF12C3C
:10216000EC0EFD1ECE010196B7010E9424158E01D2
:102170000F5E1F4FCE010596B8010E9424158A8973
:1021800091E089278A8BC701B801AE01475E5F4F96
:102190000E94530F0E944F14A096E6E00C946F3AF1
:1021A000A0E2B0E0E6EDF0E10C94533A69837A8363
:1021B0008B839C832D833E834F835887F9E0EF2EDA
:1021C000F12CEC0EFD1ECE010196B7010E942415E4
:1021D0008E010F5E1F4FCE010596B8010E94241597
:1021E000C701B801AE01475E5F4F0E94530F0E94C6
:1021F0004F14A096E6E00C946F3AA0E2B0E0E3E062
:10220000F1E10C94473A69837A838B839C832D8315
:102210003E834F835887CE010196BE01675F7F4F93
:102220000E942415CE010596BE016F5E7F4F0E946D
:1022300024159985923088F089898230C8F09430CD
:1022400019F4823051F404C0843029F4923081F4BE
:102250008BE890E0C6C0923049F420E09A858A89E4
:10226000981321E02A87CE010996BBC0823049F439
:1022700020E09A858A89981321E02A8BCE01419625
:10228000B0C02D843E844F8458886D887E888F88A6
:10229000988CEE24FF248701AA24BB24650140E02A
:1022A00050E060E070E0E0E0F0E0C101817090702B
:1022B000892BE9F0E60CF71C081D191D9A01AB01EA
:1022C0002A0D3B1D4C1D5D1D80E090E0A0E0B0E0BC
:1022D000E614F7040805190520F481E090E0A0E079
:1022E000B0E0BA01A901480F591F6A1F7B1FAA0C51
:1022F000BB1CCC1CDD1C97FE08C081E090E0A0E078
:10230000B0E0A82AB92ACA2ADB2A3196E032F105C0
:1023100049F0660C771C881C991C56944794379496
:102320002794C3CFFA85EA892B893C898B859C85C4
:10233000280F391F2E5F3F4F17C0CA018170907060
:10234000892B61F016950795F794E79480E090E06B
:10235000A0E0B0E8E82AF92A0A2B1B2B76956795AE
:10236000579547952F5F3F4F77FDE7CF0CC0440F40
:10237000551F661F771F17FD4160EE0CFF1C001FE5
:10238000111F21503040403090E0590790E069071C
:1023900090E4790760F32B8F3C8FDB01CA018F77C4
:1023A0009070A070B07080349105A105B10561F402
:1023B00047FD0AC0E114F1040105110529F0405C54
:1023C0005F4F6F4F7F4F40781A8EFE1711F081E0FC
:1023D0008A8F4D8F5E8F6F8F78A383E0898FCE01B8
:1023E00049960E944F14A096E2E10C94633AA8E14A
:1023F000B0E0EDEFF1E10C944F3A69837A838B837F
:102400009C832D833E834F835887B9E0EB2EF12CBC
:10241000EC0EFD1ECE010196B7010E9424158E011F
:102420000F5E1F4FCE010596B8010E942415298525
:10243000223008F47EC03989323010F4B8017CC0F3
:102440008A859A8989278A87243011F0223031F4CD
:10245000231709F06EC06BE870E06EC0343039F4B9
:102460001D861E861F86188A1C861B8604C0323075
:1024700021F484E08987B7015FC02B853C858B8977
:102480009C89281B390B3C872B87ED84FE840F85A4
:102490001889AD88BE88CF88D88CEA14FB040C0557
:1024A0001D0540F4EE0CFF1C001F111F2150304091
:1024B0003C872B8720E030E040E050E080E090E077
:1024C000A0E0B0E460E070E0EA14FB040C051D0538
:1024D00040F0282B392B4A2B5B2BEA18FB080C0900
:1024E0001D09B695A79597958795EE0CFF1C001FC3
:1024F000111F6F5F7F4F6F31710531F7DA01C9012D
:102500008F779070A070B07080349105A105B105EF
:1025100061F427FD0AC0E114F1040105110529F059
:10252000205C3F4F4F4F5F4F20782D873E874F876E
:10253000588BBE01675F7F4FCB010E944F14689696
:10254000EAE00C946B3AA8E1B0E0E9EAF2E10C941D
:10255000533A69837A838B839C832D833E834F8395
:10256000588789E0E82EF12CEC0EFD1ECE01019675
:10257000B7010E9424158E010F5E1F4FCE010596F4
:10258000B8010E9424158985823040F08989823003
:1025900028F0C701B8010E949C1501C08FEF689612
:1025A000E6E00C946F3AA8E1B0E0E9EDF2E10C94BA
:1025B000533A69837A838B839C832D833E834F8335
:1025C000588789E0E82EF12CEC0EFD1ECE01019615
:1025D000B7010E9424158E010F5E1F4FCE01059694
:1025E000B8010E9424158985823040F089898230A3
:1025F00028F0C701B8010E949C1501C08FEF6896B2
:10260000E6E00C946F3AA8E1B0E0E9E0F3E10C9465
:10261000533A69837A838B839C832D833E834F83D4
:10262000588789E0E82EF12CEC0EFD1ECE010196B4
:10263000B7010E9424158E010F5E1F4FCE01059633
:10264000B8010E9424158985823040F08989823042
:1026500028F0C701B8010E949C1501C081E068966E
:10266000E6E00C946F3AACE0B0E0E9E3F3E10C94FF
:10267000573A69837A838B839C83CE010196BE018E
:102680006B5F7F4F0E9424158D81823061F1823013
:1026900050F1843021F48E81882351F12EC02F8196
:1026A000388537FD20C06E812F3131051CF066233F
:1026B000F9F023C08EE190E0821B930B29853A85C7
:1026C0004B855C8504C056954795379527958A9527
:1026D000D2F76623B1F050954095309521953F4F44
:1026E0004F4F5F4F0EC020E030E040E050E009C0A7
:1026F0002FEF3FEF4FEF5FE704C020E030E040E016
:1027000050E8B901CA012C96E2E00C94733AA8E0B3
:10271000B0E0EDE8F3E10C944F3A7B018C016115D8
:1027200071058105910519F482E0898360C083E019
:1027300089838EE1C82ED12CDC82CB82ED82FE8291
:102740000F831887C801B7010E940014FC0131975C
:10275000F7FF3BC0222733272E1B3F0B5701680191
:10276000022E04C0D694C794B794A7940A94D2F7C3
:1027700040E050E060E070E081E090E0A0E0B0E098
:1027800004C0880F991FAA1FBB1F2A95D2F7019773
:10279000A109B1098E219F21A023B1230097A10592
:1027A000B10521F041E050E060E070E04A295B298A
:1027B0006C297D294D835E836F8378878EE190E05D
:1027C0008E1B9F0B9C838B8312C0309781F00E2E43
:1027D00004C0EE0CFF1C001F111F0A94D2F7ED82FB
:1027E000FE820F831887CE1ADF0ADC82CB821A8220
:1027F000CE0101960E944F142896EAE00C946B3AA1
:10280000EF92FF920F931F937B018C0180E0E816FB
:1028100080E0F80681E0080780E0180788F48FEF71
:10282000E816F1040105110531F028F088E090E088
:10283000A0E0B0E017C080E090E0A0E0B0E012C0FF
:1028400080E0E81680E0F80680E0080781E01807DD
:1028500028F088E190E0A0E0B0E004C080E190E0E2
:10286000A0E0B0E020E230E040E050E0281B390B6F
:102870004A0B5B0B04C016950795F794E7948A956D
:10288000D2F7F701ED56FF4F8081281B310941092E
:102890005109C9011F910F91FF90EF900895DF92A8
:1028A000EF92FF920F931F93FC01E480F580068165
:1028B0001781D1808081823048F480E090E0A0E1EF
:1028C000B0E0E82AF92A0A2B1B2BA5C0843009F4B2
:1028D0009FC0823021F4EE24FF24870105C0E1145B
:1028E000F1040105110519F4E0E0F0E096C0628101
:1028F00073819FEF623879070CF05BC022E83FEFED
:10290000261B370B2A3131052CF020E030E040E067
:1029100050E02AC0B801A701022E04C07695679541
:10292000579547950A94D2F781E090E0A0E0B0E097
:1029300004C0880F991FAA1FBB1F2A95D2F70197C1
:10294000A109B1098E219F21A023B1230097A105E0
:10295000B10521F081E090E0A0E0B0E09A01AB0188
:10296000282B392B4A2B5B2BDA01C9018F7790700A
:10297000A070B07080349105A105B10539F427FF2E
:1029800009C0205C3F4F4F4F5F4F04C0215C3F4F59
:102990004F4F5F4FE0E0F0E02030A0E03A07A0E0CA
:1029A0004A07A0E45A0710F0E1E0F0E079018A015B
:1029B00027C06038710564F5FB01E158FF4FD8016D
:1029C000C7018F779070A070B07080349105A10519
:1029D000B10539F4E7FE0DC080E490E0A0E0B0E07E
:1029E00004C08FE390E0A0E0B0E0E80EF91E0A1FFB
:1029F0001B1F17FF05C016950795F794E7943196AE
:102A000087E016950795F794E7948A95D1F705C066
:102A1000EE24FF248701EFEFF0E06E2F6795662725
:102A20006795902F9F77D794DD24D7948E2F869526
:102A3000492F462B582F5D29B701CA011F910F91CD
:102A4000FF90EF90DF900895FC01DB014081518100
:102A50002281622F6F7770E0221F2227221F93812D
:102A6000892F880F822B282F30E0991F9927991FD3
:102A700011969C93119721153105A9F54115510522
:102A80006105710511F482E037C082E89FEF13966B
:102A90009C938E9312979A01AB0167E0220F331F2C
:102AA000441F551F6A95D1F783E08C930DC0220F08
:102AB000331F441F551F12968D919C9113970197B8
:102AC00013969C938E931297203080E0380780E015
:102AD000480780E4580758F314962D933D934D937F
:102AE0005C93179708952F3F310579F441155105EF
:102AF0006105710519F484E08C93089564FF03C0A7
:102B000081E08C9312C01C9210C02F573040139656
:102B10003C932E93129783E08C9387E0440F551FCC
:102B2000661F771F8A95D1F7706414964D935D9355
:102B30006D937C93179708951F93DC01FB019C9183
:102B4000923008F447C08081823008F443C094304A
:102B500051F411961C91843099F58181682F70E0B1
:102B6000611B71093FC0843021F0923031F4823012
:102B7000B9F18181882389F12DC011961C9111979B
:102B80008230F1F081811817D9F412962D913C9181
:102B90001397828193818217930794F0281739073E
:102BA000BCF014968D919D910D90BC91A02D248127
:102BB000358146815781281739074A075B0718F482
:102BC000112341F00AC082179307A407B50740F408
:102BD000112319F061E070E005C06FEF7FEF02C0D4
:102BE00060E070E0CB011F910895DF93CF93CDB7E4
:102BF000DEB7E7E2F0E080E48083E6E2F0E087E839
:102C00008083A7E2B0E0E7E2F0E080818F7D8C93E3
:102C1000CF91DF9108952F923F924F925F926F92E2
:102C20007F928F929F92AF92BF92CF92DF92EF925C
:102C3000FF920F931F93DF93CF9300D0CDB7DEB7F2
:102C40008983A7E2B0E0E7E2F0E08081807E8C93A8
:102C5000A7E2B0E0E7E2F0E08081982F89818F71F0
:102C6000892B8C93A6E2B0E0E6E2F0E080818064FC
:102C70008C93A6E2B0E0E6E2F0E080818F7D8C9359
:102C8000E6E2F0E08081A6E2B0E0E6E2F0E08081FA
:102C900080618C93E4E2F0E0808191815C01CC243E
:102CA000DD24EE24FF2487012A2D3B2D4C2D5D2DA4
:102CB0006E2D7F2D802F912F0F2EF8E8AF2EF02D47
:102CC0000F2EF3E1BF2EF02DCC24DD24EE24FF24C3
:102CD00000E010E00E944900222E332E442E552E93
:102CE000662E772E882E992EA22CB32CC42CD52C90
:102CF000E62CF72C082D192D2A2D3B2D4C2D5D2D62
:102D00006E2D7F2D802F912FAA24AA940F2EF3E0F1
:102D1000BF2EF02DCC24DD24EE24FF2400E010E0B3
:102D20000E946E02A22EB32EC42ED52EE62EF72EB2
:102D3000082F192F2A2D3B2D4C2D5D2D6E2D7F2D0B
:102D4000802F912FC9010F900F90CF91DF911F918C
:102D50000F91FF90EF90DF90CF90BF90AF909F903A
:102D60008F907F906F905F904F903F902F9008953D
:102D7000DF93CF93CDB7DEB7A6E2B0E0E6E2F0E0B6
:102D800080818F778C93E7E2F0E010820E94082721
:102D9000A6E2B0E0E6E2F0E08081877F8C93CF91FD
:102DA000DF910895DF93CF93CDB7DEB727970FB6A6
:102DB000F894DEBF0FBECDBF89836A834B838B81BE
:102DC000813009F06FC08981282F30E03F832E8346
:102DD0008E819F818130910549F12E813F81223082
:102DE00031052CF48E819F81009761F0D2C02E8135
:102DF0003F812230310571F18E819F8183309105B1
:102E0000E9F1C7C0AAE3B0E0EAE3F0E08081482F2F
:102E10008A81282F30E081E090E0022E02C0880FE6
:102E2000991F0A94E2F7842B8C93B3C0A7E3B0E018
:102E3000E7E3F0E08081482F8A81282F30E081E0AD
:102E400090E0022E02C0880F991F0A94E2F7842BAB
:102E50008C939FC0A4E3B0E0E4E3F0E08081482FCE
:102E60008A81282F30E081E090E0022E02C0880F96
:102E7000991F0A94E2F7842B8C938BC0A1E3B0E0F6
:102E8000E1E3F0E08081482F8A81282F30E081E063
:102E900090E0022E02C0880F991F0A94E2F7842B5B
:102EA0008C9377C08B81882309F073C08981282F88
:102EB00030E03D832C838C819D818130910559F1D7
:102EC0002C813D81223031052CF48C819D8100972D
:102ED00069F05FC02C813D812230310589F18C8100
:102EE0009D818330910509F440C053C0AAE3B0E04E
:102EF000EAE3F0E08081482F8A81282F30E081E0EA
:102F000090E0022E02C0880F991F0A94E2F7809584
:102F100084238C933EC0A7E3B0E0E7E3F0E0808138
:102F2000482F8A81282F30E081E090E0022E02C0F5
:102F3000880F991F0A94E2F7809584238C9329C007
:102F4000A4E3B0E0E4E3F0E08081482F8A81282FF9
:102F500030E081E090E0022E02C0880F991F0A94B1
:102F6000E2F7809584238C9314C0A1E3B0E0E1E301
:102F7000F0E08081482F8A81282F30E081E090E0C6
:102F8000022E02C0880F991F0A94E2F780958423CD
:102F90008C9327960FB6F894DEBF0FBECDBFCF91AE
:102FA000DF910895DF93CF9300D000D0CDB7DEB787
:102FB00089836A838981282F30E03C832B838B812E
:102FC0009C8181309105D1F02B813C8122303105EB
:102FD0002CF48B819C81009761F01EC02B813C8179
:102FE0002230310581F08B819C818330910581F005
:102FF00013C0EAE3F0E08A8180830EC0E7E3F0E0EB
:103000008A81808309C0E4E3F0E08A81808304C080
:10301000E1E3F0E08A8180830F900F900F900F9092
:10302000CF91DF910895DF93CF93CDB7DEB7279788
:103030000FB6F894DEBF0FBECDBF89836A834B8382
:103040008B81813009F06FC08981282F30E03F8368
:103050002E838E819F818130910549F12E813F81A0
:10306000223031052CF48E819F81009761F0D2C00F
:103070002E813F812230310571F18E819F81833015
:103080009105E9F1C7C0ABE3B0E0EBE3F0E080818C
:10309000482F8A81282F30E081E090E0022E02C084
:1030A000880F991F0A94E2F7842B8C93B3C0A8E38E
:1030B000B0E0E8E3F0E08081482F8A81282F30E0FB
:1030C00081E090E0022E02C0880F991F0A94E2F777
:1030D000842B8C939FC0A5E3B0E0E5E3F0E0808112
:1030E000482F8A81282F30E081E090E0022E02C034
:1030F000880F991F0A94E2F7842B8C938BC0A2E36C
:10310000B0E0E2E3F0E08081482F8A81282F30E0B0
:1031100081E090E0022E02C0880F991F0A94E2F726
:10312000842B8C9377C08B81882309F073C08981AD
:10313000282F30E03D832C838C819D818130910547
:1031400059F12C813D81223031052CF48C819D81F7
:10315000009769F05FC02C813D812230310589F1F3
:103160008C819D818330910509F440C053C0ABE34D
:10317000B0E0EBE3F0E08081482F8A81282F30E037
:1031800081E090E0022E02C0880F991F0A94E2F7B6
:10319000809584238C933EC0A8E3B0E0E8E3F0E0A0
:1031A0008081482F8A81282F30E081E090E0022E34
:1031B00002C0880F991F0A94E2F7809584238C93AC
:1031C00029C0A5E3B0E0E5E3F0E08081482F8A81E3
:1031D000282F30E081E090E0022E02C0880F991F76
:1031E0000A94E2F7809584238C9314C0A2E3B0E0A4
:1031F000E2E3F0E08081482F8A81282F30E081E0EF
:1032000090E0022E02C0880F991F0A94E2F7809581
:1032100084238C9327960FB6F894DEBF0FBECDBFE4
:10322000CF91DF910895DF93CF9300D000D0CDB739
:10323000DEB789836A838981282F30E03C832B8322
:103240008B819C8181309105D1F02B813C81223092
:1032500031052CF48B819C81009761F01EC02B817D
:103260003C812230310581F08B819C818330910536
:1032700081F013C0EBE3F0E08A8180830EC0E8E3C5
:10328000F0E08A81808309C0E5E3F0E08A818083F1
:1032900004C0E2E3F0E08A8180830F900F900F90EA
:1032A0000F90CF91DF910895DF93CF9300D000D09E
:1032B000CDB7DEB789836A838981282F30E03C83CC
:1032C0002B838B819C818130910549F12B813C813D
:1032D000223031052CF48B819C81009761F05AC01B
:1032E0002B813C812230310571F18B819C818330AF
:1032F0009105E9F14FC0ABE3B0E0EBE3F0E0808192
:10330000482F8A81282F30E081E090E0022E02C011
:10331000880F991F0A94E2F784278C933BC0A8E397
:10332000B0E0E8E3F0E08081482F8A81282F30E088
:1033300081E090E0022E02C0880F991F0A94E2F704
:1033400084278C9327C0A5E3B0E0E5E3F0E080811B
:10335000482F8A81282F30E081E090E0022E02C0C1
:10336000880F991F0A94E2F784278C9313C0A2E375
:10337000B0E0E2E3F0E08081482F8A81282F30E03E
:1033800081E090E0022E02C0880F991F0A94E2F7B4
:1033900084278C930F900F900F900F90CF91DF9117
:1033A0000895DF93CF9300D000D000D0CDB7DEB723
:1033B00089836A838981282F30E03D832C834C8167
:1033C0005D814130510549F18C819D8182309105AB
:1033D00034F42C813D812115310561F057C04C81B9
:1033E0005D814230510561F18C819D818330910571
:1033F000D1F14CC0E9E3F0E08081282F30E08A81F0
:10340000882F90E0A90102C0559547958A95E2F76B
:10341000CA01582F51705B833AC0E6E3F0E0808127
:10342000282F30E08A81882F90E0A90102C05595AD
:1034300047958A95E2F7CA01582F51705B8327C0E0
:10344000E3E3F0E08081282F30E08A81882F90E04C
:10345000A90102C0559547958A95E2F7CA01582FF0
:1034600051705B8314C0E0E3F0E08081282F30E0EE
:103470008A81882F90E0A90102C0559547958A95C9
:10348000E2F7CA01582F51705B8301C002C08B81E3
:103490008E838E8126960FB6F894DEBF0FBECDBF09
:1034A000CF91DF910895AF92BF92CF92DF92EF92CA
:1034B000FF920F931F93DF93CF93CDB7DEB7609743
:1034C0000FB6F894DEBF0FBECDBF69837A838B83BE
:1034D0009C832D833E834F835887E986FA860B872A
:1034E0001C87AD86BE86CF86D88A29813A814B81DA
:1034F0005C818D819E81AF81B88579018A01E81A4E
:10350000F90A0A0B1B0B2D8D3E8D4F8D58A18D8511
:103510009E85AF85B889281B390B4A0B5B0BC80108
:10352000B7010E94D7397B018C0129853A854B85EB
:103530005C858D819E81AF81B885281B390B4A0B34
:103540005B0BC801B7010E940A3ADA01C9019C016C
:10355000AD018D859E85AF85B889820F931FA41F0D
:10356000B51FBC01CD0160960FB6F894DEBF0FBE4B
:10357000CDBFCF91DF911F910F91FF90EF90DF9022
:10358000CF90BF90AF900895EF92FF920F931F934B
:10359000DF93CF93CDB7DEB760970FB6F894DEBF59
:1035A0000FBECDBF69837A838B839C832D833E833B
:1035B0004F835887E986FA860B871C8769817A8151
:1035C0008B819C812D813E814F8158850E94031300
:1035D00088234CF48D819E81AF81B8858D879E872D
:1035E000AF87B88B1DC069857A858B859C852981BD
:1035F0003A814B815C810E94031388234CF48985B6
:103600009A85AB85BC858D879E87AF87B88B08C0B0
:1036100089819A81AB81BC818D879E87AF87B88B6A
:103620008D859E85AF85B889BC01CD0160960FB6AA
:10363000F894DEBF0FBECDBFCF91DF911F910F91E8
:10364000FF90EF900895DF93CF93CDB7DEB7289723
:103650000FB6F894DEBF0FBECDBF0E94AA1B8CEC44
:103660000E94B12684E40E94B12680E060E00E94BE
:10367000D1198823D1F30E94AA1B8CEC0E94B12699
:103680008EEB0E94B1260E94D22688870E94D22605
:103690008F830E94AA1B8F81882F90E09E838D8349
:1036A0008D819E81382F22278885882F90E0822B5C
:1036B000932BCC01A0E0B0E0BC01CD010E948713A8
:1036C000DC01CB0189839A83AB83BC8369817A81D6
:1036D0008B819C8120E030E040E851E40E94F711AA
:1036E000DC01CB01BC01CD0128960FB6F894DEBFFA
:1036F0000FBECDBFCF91DF910895DF93CF93CDB7AC
:10370000DEB780E060E041E00E94D21680E060E039
:1037100041E00E941318CF91DF910895DF93CF937A
:10372000CDB7DEB780E060E041E00E94D21680E0D5
:1037300060E040E00E941318CF91DF910895DF937D
:10374000CF93CDB7DEB780E060E00E94D119CF9172
:10375000DF9108950F931F93DF93CF93CDB7DEB71B
:10376000CA57D0400FB6F894DEBF0FBECDBF0E943F
:103770008E1BFE01EB58FF4F80E090E0A0E7B3E422
:1037800080839183A283B3838E010F581F4FFE0164
:10379000EB58FF4F60817181828193812BEA3AEA75
:1037A0004AE250E40E94FD10DC01CB01F801808365
:1037B0009183A283B383FE01EF58FF4F6081718133
:1037C0008281938120E030E040E85FE30E940313B0
:1037D000882334F4FE01E059FF4F81E08083E0C08C
:1037E000FE01EF58FF4F608171818281938120E05B
:1037F00030E04FE753E40E94A31218160CF0C0C04B
:10380000FE01EB58FF4F608171818281938120E03E
:1038100030E04AE754E40E94F711DC01CB01FE01DD
:10382000E459FF4F80839183A283B3838E010859AB
:103830001F4FFE01E459FF4F6081718182819381A6
:1038400020E030E04AEF54E40E94FD10DC01CB019F
:10385000F80180839183A283B383FE01E859FF4F6F
:10386000608171818281938120E030E040E85FE3F4
:103870000E940313882344F4FE01EA59FF4F81E0BC
:1038800090E09183808364C0FE01E859FF4F60811E
:1038900071818281938120E03FEF4FE757E40E94DE
:1038A000A31218160CF043C0FE01E459FF4F6081CB
:1038B00071818281938120E030E040E251E40E94F6
:1038C000FD10DC01CB018E010A591F4FBC01CD0157
:1038D0000E944202DC01CB01F801918380831FC06A
:1038E000FE01EC59FF4F88EC90E091838083FE014C
:1038F000EC59FF4F808191810197F1F7FE01EC595E
:10390000FF4F91838083DE01AA59BF4FFE01EA5920
:10391000FF4F80819181019711969C938E93FE01B8
:10392000EA59FF4F808191810097D1F64BC08E01FB
:103930000A591F4FFE01E859FF4F60817181828152
:1039400093810E944202DC01CB01F80191838083C4
:10395000DE01AE59BF4FFE01EA59FF4F80819181D0
:1039600011969C938E93FE01EE59FF4F80819181B9
:103970000197F1F7FE01EE59FF4F9183808322C03A
:103980008E0100591F4FFE01EF58FF4F608171817A
:10399000828193810E944202DC01CB01F801808385
:1039A000DE01AF59BF4FFE01E059FF4F80818C937C
:1039B000FE01EF59FF4F80818A95F1F7FE01EF5923
:1039C000FF4F8083FE01E35AFF4F80E090E0A0E7C5
:1039D000B3E480839183A283B3838E01075A1F4F80
:1039E000FE01E35AFF4F60817181828193812BEA4E
:1039F0003AEA4AE250E40E94FD10DC01CB01F801F2
:103A000080839183A283B383FE01E75AFF4F6081D5
:103A100071818281938120E030E040E85FE30E9481
:103A20000313882334F4FE01E85AFF4F81E08083BA
:103A3000E0C0FE01E75AFF4F60817181828193816E
:103A400020E030E04FE753E40E94A31218160CF078
:103A5000C0C0FE01E35AFF4F608171818281938172
:103A600020E030E04AE754E40E94F711DC01CB018A
:103A7000FE01EC5AFF4F80839183A283B3838E01B2
:103A8000005B1F4FFE01EC5AFF4F60817181828104
:103A9000938120E030E04AEF54E40E94FD10DC0105
:103AA000CB01F80180839183A283B383FE01E05BA5
:103AB000FF4F608171818281938120E030E040E896
:103AC0005FE30E940313882344F4FE01E25BFF4F8F
:103AD00081E090E09183808364C0FE01E05BFF4F52
:103AE000608171818281938120E03FEF4FE757E44D
:103AF0000E94A31218160CF043C0FE01EC5AFF4FAF
:103B0000608171818281938120E030E040E251E464
:103B10000E94FD10DC01CB018E01025B1F4FBC0136
:103B2000CD010E944202DC01CB01F8019183808328
:103B30001FC0FE01E45BFF4F88EC90E0918380831F
:103B4000FE01E45BFF4F808191810197F1F7FE0157
:103B5000E45BFF4F91838083DE01A25BBF4FFE01D8
:103B6000E25BFF4F80819181019711969C938E9328
:103B7000FE01E25BFF4F808191810097D1F64BC03F
:103B80008E01025B1F4FFE01E05BFF4F6081718180
:103B9000828193810E944202DC01CB01F801918372
:103BA0008083DE01A65BBF4FFE01E25BFF4F808199
:103BB000918111969C938E93FE01E65BFF4F80816D
:103BC00091810197F1F7FE01E65BFF4F91838083BE
:103BD00022C08E01085A1F4FFE01E75AFF4F608135
:103BE0007181828193810E944202DC01CB01F80144
:103BF0008083DE01A75BBF4FFE01E85AFF4F808143
:103C00008C93FE01E75BFF4F80818A95F1F7FE01FF
:103C1000E75BFF4F80830E947D1BFE01EB5BFF4F44
:103C200080E090E0ACE8B2E480839183A283B38328
:103C30008E010F5B1F4FFE01EB5BFF4F60817181B7
:103C4000828193812BEA3AEA4AE250E40E94FD1015
:103C5000DC01CB01F80180839183A283B383FE0151
:103C6000EF5BFF4F608171818281938120E030E0C2
:103C700040E85FE30E940313882334F481E0FE01EF
:103C8000E05CFF4F80839DC0FE01EF5BFF4F6081D2
:103C900071818281938120E030E04FE753E40E94FC
:103CA000A31218160CF07EC0FE01EB5BFF4F608183
:103CB00071818281938120E030E04AE754E40E94E0
:103CC000F711DC01CB018CAF9DAFAEAFBFAF6CADD8
:103CD0007DAD8EAD9FAD20E030E04AEF54E40E9410
:103CE000FD10DC01CB0188AF99AFAAAFBBAF68ADC7
:103CF00079AD8AAD9BAD20E030E040E85FE30E9403
:103D0000031388232CF481E090E09FAB8EAB3FC07F
:103D100068AD79AD8AAD9BAD20E03FEF4FE757E44A
:103D20000E94A31218164CF56CAD7DAD8EAD9FAD03
:103D300020E030E040E251E40E94FD10DC01CB01C4
:103D4000BC01CD010E944202DC01CB019FAB8EABD6
:103D50000FC088EC90E09DAB8CAB8CA99DA901971E
:103D6000F1F79DAB8CAB8EA99FA901979FAB8EAB52
:103D70008EA99FA9009769F72DC068AD79AD8AAD6E
:103D80009BAD0E944202DC01CB019FAB8EAB8EA9A2
:103D90009FA99BAB8AAB8AA99BA90197F1F79BAB23
:103DA0008AAB18C0FE01EF5BFF4F60817181828199
:103DB00093810E944202DC01CB01FE01E05CFF4FD7
:103DC0008083FE01E05CFF4F808189AB89A98A95E1
:103DD000F1F789AB0E949F1BFE01E758FF4F882F28
:103DE00090E09183808380E090E0ADE4B3E48DA720
:103DF0009EA7AFA7B8AB6DA57EA58FA598A92BEA06
:103E00003AEA4AE250E40E94FD10DC01CB0189A7A6
:103E10009AA7ABA7BCA769A57AA58BA59CA520E00E
:103E200030E040E85FE30E94031388231CF481E044
:103E300088A791C069A57AA58BA59CA520E030E054
:103E40004FE753E40E94A31218160CF07BC06DA537
:103E50007EA58FA598A920E030E04AE754E40E94AF
:103E6000F711DC01CB018CA39DA3AEA3BFA36CA172
:103E70007DA18EA19FA120E030E04AEF54E40E9492
:103E8000FD10DC01CB0188A399A3AAA3BBA368A161
:103E900079A18AA19BA120E030E040E85FE30E9485
:103EA000031388232CF481E090E09F8F8E8F3FC016
:103EB00068A179A18AA19BA120E03FEF4FE757E4D9
:103EC0000E94A31218164CF56CA17DA18EA19FA192
:103ED00020E030E040E251E40E94FD10DC01CB0123
:103EE000BC01CD010E944202DC01CB019F8F8E8F6D
:103EF0000FC088EC90E09D8F8C8F8C8D9D8D0197ED
:103F0000F1F79D8F8C8F8E8D9F8D01979F8F8E8F58
:103F10008E8D9F8D009769F724C068A179A18AA131
:103F20009BA10E944202DC01CB019F8F8E8F8E8D60
:103F30009F8D9B8F8A8F8A8D9B8D0197F1F79B8F29
:103F40008A8F0FC069A57AA58BA59CA50E94420205
:103F5000DC01CB0188A788A5898F898D8A95F1F727
:103F6000898F80E090E0ADE4B3E48D8B9E8BAF8BC6
:103F7000B88F6D897E898F89988D2BEA3AEA4AE25B
:103F800050E40E94FD10DC01CB01898B9A8BAB8B36
:103F9000BC8B69897A898B899C8920E030E040E874
:103FA0005FE30E94031388231CF481E0888B91C097
:103FB00069897A898B899C8920E030E04FE753E456
:103FC0000E94A31218160CF07BC06D897E898F8920
:103FD000988D20E030E04AE754E40E94F711DC01BC
:103FE000CB018C879D87AE87BF876C857D858E854D
:103FF0009F8520E030E04AEF54E40E94FD10DC0190
:10400000CB0188879987AA87BB87688579858A8548
:104010009B8520E030E040E85FE30E9403138823A3
:104020002CF481E090E09F838E833FC06885798582
:104030008A859B8520E03FEF4FE757E40E94A3125B
:1040400018164CF56C857D858E859F8520E030E0C7
:1040500040E251E40E94FD10DC01CB01BC01CD0126
:104060000E944202DC01CB019F838E830FC088EC4B
:1040700090E09D838C838C819D810197F1F79D83D6
:104080008C838E819F8101979F838E838E819F81F8
:10409000009769F724C0688579858A859B850E9489
:1040A0004202DC01CB019F838E838E819F819B83A3
:1040B0008A838A819B810197F1F79B838A830FC052
:1040C00069897A898B899C890E944202DC01CB0133
:1040D000888B8889898389818A95F1F789830E94F1
:1040E0007D1BFE01E758FF4F80819181C658DF4F4D
:1040F0000FB6F894DEBF0FBECDBFCF91DF911F91F9
:104100000F9108950F931F93DF93CF93CDB7DEB731
:10411000C156D0400FB6F894DEBF0FBECDBFFE0132
:10412000EF59FF4F8083FE01EF59FF4F80818823B5
:1041300009F40BC20E948E1BFE01E35AFF4F80E080
:1041400090E0A0ECB0E480839183A283B3838E01DE
:10415000075A1F4FFE01E35AFF4F60817181828130
:1041600093812BEA3AEA4AE250E40E94FD10DC0116
:10417000CB01F80180839183A283B383FE01E75AC8
:10418000FF4F608171818281938120E030E040E8BF
:104190005FE30E940313882334F4FE01E85AFF4FC3
:1041A00081E08083E0C0FE01E75AFF4F60817181AA
:1041B0008281938120E030E04FE753E40E94A31214
:1041C00018160CF0C0C0FE01E35AFF4F60817181E8
:1041D0008281938120E030E04AE754E40E94F711A5
:1041E000DC01CB01FE01EC5AFF4F80839183A28357
:1041F000B3838E01005B1F4FFE01EC5AFF4F6081BD
:1042000071818281938120E030E04AEF54E40E9482
:10421000FD10DC01CB01F80180839183A283B3837D
:10422000FE01E05BFF4F608171818281938120E01C
:1042300030E040E85FE30E940313882344F4FE016A
:10424000E25BFF4F81E090E09183808364C0FE01D8
:10425000E05BFF4F608171818281938120E03FEFBD
:104260004FE757E40E94A31218160CF043C0FE015A
:10427000EC5AFF4F608171818281938120E030E0B0
:1042800040E251E40E94FD10DC01CB018E01025B93
:104290001F4FBC01CD010E944202DC01CB01F8019D
:1042A000918380831FC0FE01E45BFF4F88EC90E0A8
:1042B00091838083FE01E45BFF4F808191810197B0
:1042C000F1F7FE01E45BFF4F91838083DE01A25B87
:1042D000BF4FFE01E25BFF4F8081918101971196F4
:1042E0009C938E93FE01E25BFF4F8081918100974A
:1042F000D1F64BC08E01025B1F4FFE01E05BFF4F0A
:1043000060817181828193810E944202DC01CB0134
:10431000F80191838083DE01A65BBF4FFE01E25B63
:10432000FF4F8081918111969C938E93FE01E65BF5
:10433000FF4F808191810197F1F7FE01E65BFF4F0E
:104340009183808322C08E01085A1F4FFE01E75AD5
:10435000FF4F60817181828193810E944202DC0162
:10436000CB01F8018083DE01A75BBF4FFE01E85A55
:10437000FF4F80818C93FE01E75BFF4F80818A9520
:10438000F1F7FE01E75BFF4F80830E947D1BFE017A
:10439000EB5BFF4F80E090E0A0E8B2E48083918384
:1043A000A283B3838E010F5B1F4FFE01EB5BFF4FB8
:1043B00060817181828193812BEA3AEA4AE250E47A
:1043C0000E94FD10DC01CB01F80180839183A28360
:1043D000B383FE01EF5BFF4F608171818281938126
:1043E00020E030E040E85FE30E940313882334F4C8
:1043F00081E0FE01E05CFF4F80839DC0FE01EF5B2A
:10440000FF4F608171818281938120E030E04FE72E
:1044100053E40E94A31218160CF07EC0FE01EB5B61
:10442000FF4F608171818281938120E030E04AE713
:1044300054E40E94F711DC01CB018CAF9DAFAEAF0D
:10444000BFAF6CAD7DAD8EAD9FAD20E030E04AEFEB
:1044500054E40E94FD10DC01CB0188AF99AFAAAFF4
:10446000BBAF68AD79AD8AAD9BAD20E030E040E8F0
:104470005FE30E94031388232CF481E090E09FAB5C
:104480008EAB3FC068AD79AD8AAD9BAD20E03FEF0C
:104490004FE757E40E94A31218164CF56CAD7DADA2
:1044A0008EAD9FAD20E030E040E251E40E94FD106F
:1044B000DC01CB01BC01CD010E944202DC01CB0139
:1044C0009FAB8EAB0FC088EC90E09DAB8CAB8CA902
:1044D0009DA90197F1F79DAB8CAB8EA99FA9019780
:1044E0009FAB8EAB8EA99FA9009769F7AEC168AD4F
:1044F00079AD8AAD9BAD0E944202DC01CB019FAB3E
:104500008EAB8EA99FA99BAB8AAB8AA99BA9019769
:10451000F1F79BAB8AAB99C1FE01EF5BFF4F608166
:104520007181828193810E944202DC01CB01FE01F4
:10453000E05CFF4F8083FE01E05CFF4F808189AB30
:1045400089A98A95F1F789AB80C10E948E1B80E012
:1045500090E0A0E7B2E48DA79EA7AFA7B8AB6DA58A
:104560007EA58FA598A92BEA3AEA4AE250E40E9478
:10457000FD10DC01CB0189A79AA7ABA7BCA769A551
:104580007AA58BA59CA520E030E040E85FE30E947F
:10459000031388231CF481E088A791C069A57AA53C
:1045A0008BA59CA520E030E04FE753E40E94A312C6
:1045B00018160CF07BC06DA57EA58FA598A920E0EC
:1045C00030E04AE754E40E94F711DC01CB018CA3F0
:1045D0009DA3AEA3BFA36CA17DA18EA19FA120E04E
:1045E00030E04AEF54E40E94FD10DC01CB0188A3C7
:1045F00099A3AAA3BBA368A179A18AA19BA120E04A
:1046000030E040E85FE30E94031388232CF481E04C
:1046100090E09F8F8E8F3FC068A179A18AA19BA156
:1046200020E03FEF4FE757E40E94A31218164CF525
:104630006CA17DA18EA19FA120E030E040E251E479
:104640000E94FD10DC01CB01BC01CD010E944202A1
:10465000DC01CB019F8F8E8F0FC088EC90E09D8F87
:104660008C8F8C8D9D8D0197F1F79D8F8C8F8E8D0A
:104670009F8D01979F8F8E8F8E8D9F8D009769F7ED
:1046800024C068A179A18AA19BA10E944202DC01F9
:10469000CB019F8F8E8F8E8D9F8D9B8F8A8F8A8D62
:1046A0009B8D0197F1F79B8F8A8F0FC069A57AA523
:1046B0008BA59CA50E944202DC01CB0188A788A59E
:1046C000898F898D8A95F1F7898F0E947D1B80E003
:1046D00090E0A0E2B1E48D8B9E8BAF8BB88F6D899B
:1046E0007E898F89988D2BEA3AEA4AE250E40E944B
:1046F000FD10DC01CB01898B9A8BAB8BBC8B69895C
:104700007A898B899C8920E030E040E85FE30E9451
:10471000031388231CF481E0888B91C069897A890E
:104720008B899C8920E030E04FE753E40E94A3127C
:1047300018160CF07BC06D897E898F89988D20E0DA
:1047400030E04AE754E40E94F711DC01CB018C878A
:104750009D87AE87BF876C857D858E859F8520E090
:1047600030E04AEF54E40E94FD10DC01CB01888761
:104770009987AA87BB87688579858A859B8520E08C
:1047800030E040E85FE30E94031388232CF481E0CB
:1047900090E09F838E833FC0688579858A859B855D
:1047A00020E03FEF4FE757E40E94A31218164CF5A4
:1047B0006C857D858E859F8520E030E040E251E468
:1047C0000E94FD10DC01CB01BC01CD010E94420220
:1047D000DC01CB019F838E830FC088EC90E09D832A
:1047E0008C838C819D810197F1F79D838C838E81D1
:1047F0009F8101979F838E838E819F81009769F7A8
:1048000024C0688579858A859B850E944202DC01E7
:10481000CB019F838E838E819F819B838A838A8134
:104820009B810197F1F79B838A830FC069897A89FD
:104830008B899C890E944202DC01CB01888B88898C
:10484000898389818A95F1F78983CF59DF4F0FB624
:10485000F894DEBF0FBECDBFCF91DF911F910F91B6
:1048600008950F931F93DF93CF93CDB7DEB7C9544D
:10487000D0400FB6F894DEBF0FBECDBF0E948E1B96
:10488000FE01EB5BFF4F80E090E0A0ECB0E48083A2
:104890009183A283B3838E010F5B1F4FFE01EB5BFD
:1048A000FF4F60817181828193812BEA3AEA4AE26B
:1048B00050E40E94FD10DC01CB01F801808391835C
:1048C000A283B383FE01EF5BFF4F60817181828120
:1048D000938120E030E040E85FE30E9403138823E7
:1048E00034F481E0FE01E05CFF4F80839DC0FE0157
:1048F000EF5BFF4F608171818281938120E030E026
:104900004FE753E40E94A31218160CF07EC0FE017C
:10491000EB5BFF4F608171818281938120E030E009
:104920004AE754E40E94F711DC01CB018CAF9DAF44
:10493000AEAFBFAF6CAD7DAD8EAD9FAD20E030E0D2
:104940004AEF54E40E94FD10DC01CB0188AF99AF1F
:10495000AAAFBBAF68AD79AD8AAD9BAD20E030E0CA
:1049600040E85FE30E94031388232CF481E090E089
:104970009FAB8EAB3FC068AD79AD8AAD9BAD20E0FB
:104980003FEF4FE757E40E94A31218164CF56CADA9
:104990007DAD8EAD9FAD20E030E040E251E40E945D
:1049A000FD10DC01CB01BC01CD010E944202DC0103
:1049B000CB019FAB8EAB0FC088EC90E09DAB8CAB76
:1049C0008CA99DA90197F1F79DAB8CAB8EA99FA9EE
:1049D00001979FAB8EAB8EA99FA9009769F72DC059
:1049E00068AD79AD8AAD9BAD0E944202DC01CB017E
:1049F0009FAB8EAB8EA99FA99BAB8AAB8AA99BA9C3
:104A00000197F1F79BAB8AAB18C0FE01EF5BFF4F3C
:104A100060817181828193810E944202DC01CB011D
:104A2000FE01E05CFF4F8083FE01E05CFF4F808170
:104A300089AB89A98A95F1F789AB0E947D1B80E03B
:104A400090E0A0E1B1E48DA79EA7AFA7B8AB6DA59C
:104A50007EA58FA598A92BEA3AEA4AE250E40E9483
:104A6000FD10DC01CB0189A79AA7ABA7BCA769A55C
:104A70007AA58BA59CA520E030E040E85FE30E948A
:104A8000031388231CF481E088A791C069A57AA547
:104A90008BA59CA520E030E04FE753E40E94A312D1
:104AA00018160CF07BC06DA57EA58FA598A920E0F7
:104AB00030E04AE754E40E94F711DC01CB018CA3FB
:104AC0009DA3AEA3BFA36CA17DA18EA19FA120E059
:104AD00030E04AEF54E40E94FD10DC01CB0188A3D2
:104AE00099A3AAA3BBA368A179A18AA19BA120E055
:104AF00030E040E85FE30E94031388232CF481E058
:104B000090E09F8F8E8F3FC068A179A18AA19BA161
:104B100020E03FEF4FE757E40E94A31218164CF530
:104B20006CA17DA18EA19FA120E030E040E251E484
:104B30000E94FD10DC01CB01BC01CD010E944202AC
:104B4000DC01CB019F8F8E8F0FC088EC90E09D8F92
:104B50008C8F8C8D9D8D0197F1F79D8F8C8F8E8D15
:104B60009F8D01979F8F8E8F8E8D9F8D009769F7F8
:104B700024C068A179A18AA19BA10E944202DC0104
:104B8000CB019F8F8E8F8E8D9F8D9B8F8A8F8A8D6D
:104B90009B8D0197F1F79B8F8A8F0FC069A57AA52E
:104BA0008BA59CA50E944202DC01CB0188A788A5A9
:104BB000898F898D8A95F1F7898F0E949F1BFE014D
:104BC000E75BFF4F808380E090E0ACE5B2E48D8B43
:104BD0009E8BAF8BB88F6D897E898F89988D2BEADC
:104BE0003AEA4AE250E40E94FD10DC01CB01898BD5
:104BF0009A8BAB8BBC8B69897A898B899C8920E0E5
:104C000030E040E85FE30E94031388231CF481E056
:104C1000888B91C069897A898B899C8920E030E0F2
:104C20004FE753E40E94A31218160CF07BC06D8965
:104C30007E898F89988D20E030E04AE754E40E9415
:104C4000F711DC01CB018C879D87AE87BF876C8510
:104C50007D858E859F8520E030E04AEF54E40E94F8
:104C6000FD10DC01CB0188879987AA87BB876885FF
:104C700079858A859B8520E030E040E85FE30E94EB
:104C8000031388232CF481E090E09F838E833FC040
:104C9000688579858A859B8520E03FEF4FE757E45B
:104CA0000E94A31218164CF56C857D858E859F8514
:104CB00020E030E040E251E40E94FD10DC01CB0135
:104CC000BC01CD010E944202DC01CB019F838E8397
:104CD0000FC088EC90E09D838C838C819D8101972F
:104CE000F1F79D838C838E819F8101979F838E83B3
:104CF0008E819F81009769F724C0688579858A85B0
:104D00009B850E944202DC01CB019F838E838E81B2
:104D10009F819B838A838A819B810197F1F79B8383
:104D20008A830FC069897A898B899C890E94420293
:104D3000DC01CB01888B8889898389818A95F1F789
:104D40008983FE01E75BFF4F8081C75BDF4F0FB6B2
:104D5000F894DEBF0FBECDBFCF91DF911F910F91B1
:104D60000895DF93CF9300D00F92CDB7DEB78B833A
:104D70001A8219820CC08B8181700E9482208B81E3
:104D800086958B8389819A8101969A83898389810B
:104D90009A81883091057CF30F900F900F90CF91FE
:104DA000DF910895DF93CF9300D00F92CDB7DEB798
:104DB0001A82198213C08B8186958B830E943124BD
:104DC000882F90E081709070882319F08B81806823
:104DD0008B8389819A8101969A83898389819A81BB
:104DE0008830910544F38B810F900F900F90CF91F5
:104DF000DF910895DF93CF93CDB7DEB7AFE5B0E095
:104E0000EFE5F0E0808180688C93CF91DF91089589
:104E1000DF93CF93CDB7DEB7AFE5B0E0EFE5F0E0DD
:104E200080818F778C93CF91DF9108950F931F939B
:104E3000DF93CF93CDB7DEB7C755D0400FB6F89408
:104E4000DEBF0FBECDBFFE01E95AFF4F8083A8E34E
:104E5000B0E0E8E3F0E08081982F9F70FE01E95A0E
:104E6000FF4F8081807F892B8C93A8E3B0E0E8E33B
:104E7000F0E080818E7F8C93A8E3B0E0E8E3F0E07F
:104E8000808182608C93FE01ED5AFF4F80E090E0BC
:104E9000A0E8BFE380839183A283B3838E01015B8B
:104EA0001F4FFE01ED5AFF4F608171818281938116
:104EB0002BEA3AEA4AE250E40E94FD10DC01CB0101
:104EC000F80180839183A283B383FE01E15BFF4FEE
:104ED000608171818281938120E030E040E85FE36E
:104EE0000E940313882334F4FE01E25BFF4F81E04C
:104EF0008083E0C0FE01E15BFF4F608171818281B0
:104F0000938120E030E04FE753E40E94A31218168B
:104F10000CF0C0C0FE01ED5AFF4F608171818281AB
:104F2000938120E030E04AE754E40E94F711DC016D
:104F3000CB01FE01E65BFF4F80839183A283B383A5
:104F40008E010A5B1F4FFE01E65BFF4F608171819E
:104F50008281938120E030E04AEF54E40E94FD100A
:104F6000DC01CB01F80180839183A283B383FE012E
:104F7000EA5BFF4F608171818281938120E030E0A4
:104F800040E85FE30E940313882344F4FE01EC5BD6
:104F9000FF4F81E090E09183808364C0FE01EA5B73
:104FA000FF4F608171818281938120E03FEF4FE765
:104FB00057E40E94A31218160CF043C0FE01E65BF2
:104FC000FF4F608171818281938120E030E040E277
:104FD00051E40E94FD10DC01CB018E010C5B1F4FE0
:104FE000BC01CD010E944202DC01CB01F80191839A
:104FF00080831FC0FE01EE5BFF4F88EC90E0918341
:105000008083FE01EE5BFF4F808191810197F1F774
:10501000FE01EE5BFF4F91838083DE01AC5BBF4FEF
:10502000FE01EC5BFF4F80819181019711969C936B
:105030008E93FE01EC5BFF4F808191810097D1F64A
:1050400042C08E010C5B1F4FFE01EA5BFF4F608187
:105050007181828193810E944202DC01CB01F801BF
:1050600091838083DE01A05CBF4FFE01EC5BFF4FAC
:105070008081918111969C938E93FE01E05CFF4F9D
:10508000808191810197F1F7FE01E05CFF4F9183F0
:10509000808319C08E01025B1F4FFE01E15BFF4F51
:1050A00060817181828193810E944202DC01CB0187
:1050B000F8018083FE01E25BFF4F80818FAF8FADEF
:1050C0008A95F1F78FAFA8E3B0E0E8E3F0E08081E4
:1050D0008D7F8C9380E090E0A8E4B3E48BAF9CAF2D
:1050E000ADAFBEAF6BAD7CAD8DAD9EAD2BEA3AEAF8
:1050F0004AE250E40E94FD10DC01CB018FAB98AF77
:10510000A9AFBAAF6FA978AD89AD9AAD20E030E014
:1051100040E85FE30E94031388231CF481E08EAB18
:1051200091C06FA978AD89AD9AAD20E030E04FE72E
:1051300053E40E94A31218160CF07BC06BAD7CAD3B
:105140008DAD9EAD20E030E04AE754E40E94F711B7
:10515000DC01CB018AAB9BABACABBDAB6AA97BA935
:105160008CA99DA920E030E04AEF54E40E94FD1094
:10517000DC01CB018EA79FA7A8ABB9AB6EA57FA51D
:1051800088A999A920E030E040E85FE30E9403137A
:1051900088232CF481E090E09DA78CA73FC06EA5EA
:1051A0007FA588A999A920E03FEF4FE757E40E9427
:1051B000A31218164CF56AA97BA98CA99DA920E019
:1051C00030E040E251E40E94FD10DC01CB01BC0163
:1051D000CD010E944202DC01CB019DA78CA70FC02C
:1051E00088EC90E09BA78AA78AA59BA50197F1F779
:1051F0009BA78AA78CA59DA501979DA78CA78CA589
:105200009DA5009769F724C06EA57FA588A999A9D7
:105210000E944202DC01CB019DA78CA78CA59DA515
:1052200099A788A788A599A50197F1F799A788A7B5
:105230000FC06FA978AD89AD9AAD0E944202DC0122
:10524000CB018EAB8EA98FA38FA18A95F1F78FA387
:10525000A8E3B0E0E8E3F0E08081282F2F70FE01A2
:10526000E95AFF4F8081882F90E082959295907F38
:105270009827807F9827822B8C93A8E3B0E0E8E3FF
:10528000F0E0808182608C9380E090E0A0E8BFE352
:105290008BA39CA3ADA3BEA36BA17CA18DA19EA15A
:1052A0002BEA3AEA4AE250E40E94FD10DC01CB010D
:1052B0008F8F98A3A9A3BAA36F8D78A189A19AA172
:1052C00020E030E040E85FE30E94031388231CF4F1
:1052D00081E08E8F91C06F8D78A189A19AA120E085
:1052E00030E04FE753E40E94A31218160CF07BC085
:1052F0006BA17CA18DA19EA120E030E04AE754E49F
:105300000E94F711DC01CB018A8F9B8FAC8FBD8F80
:105310006A8D7B8D8C8D9D8D20E030E04AEF54E4CA
:105320000E94FD10DC01CB018E8B9F8BA88FB98F63
:105330006E897F89888D998D20E030E040E85FE3B9
:105340000E94031388232CF481E090E09D8B8C8BCA
:105350003FC06E897F89888D998D20E03FEF4FE7B0
:1053600057E40E94A31218164CF56A8D7B8D8C8D24
:105370009D8D20E030E040E251E40E94FD10DC0110
:10538000CB01BC01CD010E944202DC01CB019D8B0F
:105390008C8B0FC088EC90E09B8B8A8B8A899B89D1
:1053A0000197F1F79B8B8A8B8C899D8901979D8B47
:1053B0008C8B8C899D89009769F724C06E897F89C1
:1053C000888D998D0E944202DC01CB019D8B8C8BD4
:1053D0008C899D89998B888B888999890197F1F7A8
:1053E000998B888B0FC06F8D78A189A19AA10E949B
:1053F0004202DC01CB018E8F8E8D8F878F858A953F
:10540000F1F78F87A8E3B0E0E8E3F0E080818D7FDB
:105410008C9380E090E0A0E0B0E48B879C87AD8720
:10542000BE876B857C858D859E8520E030E04AEFC8
:1054300054E40E94FD10DC01CB018F839887A9877B
:10544000BA876F81788589859A8520E030E040E8C9
:105450005FE30E94031388232CF481E090E09E8395
:105460008D833FC06F81788589859A8520E03FEFE5
:105470004FE757E40E94A31218164CF56B857C8504
:105480008D859E8520E030E040E251E40E94FD10D1
:10549000DC01CB01BC01CD010E944202DC01CB0149
:1054A0009E838D830FC088EC90E09C838B838B81DF
:1054B0009C810197F1F79C838B838D819E8101975D
:1054C0009E838D838D819E81009769F714C06F81C3
:1054D000788589859A850E944202DC01CB019E83F2
:1054E0008D838D819E819A83898389819A81019799
:1054F000F1F79A838983C95ADF4F0FB6F894DEBF5C
:105500000FBECDBFCF91DF911F910F9108950F93E3
:105510001F93DF93CF93CDB7DEB7C755D0400FB6FB
:10552000F894DEBF0FBECDBFFE01E95AFF4F808366
:10553000A8E3B0E0E8E3F0E08081982F9F70FE01DF
:10554000E95AFF4F8081807F892B8C93A8E3B0E0DC
:10555000E8E3F0E0808181608C93A8E3B0E0E8E3C9
:10556000F0E0808182608C93FE01ED5AFF4F80E075
:1055700090E0A0E8BFE380839183A283B3838E0190
:10558000015B1F4FFE01ED5AFF4F608171818281E7
:1055900093812BEA3AEA4AE250E40E94FD10DC01D2
:1055A000CB01F80180839183A283B383FE01E15B89
:1055B000FF4F608171818281938120E030E040E87B
:1055C0005FE30E940313882334F4FE01E25BFF4F84
:1055D00081E08083E0C0FE01E15BFF4F608171816B
:1055E0008281938120E030E04FE753E40E94A312D0
:1055F00018160CF0C0C0FE01ED5AFF4F608171819A
:105600008281938120E030E04AE754E40E94F71160
:10561000DC01CB01FE01E65BFF4F80839183A28317
:10562000B3838E010A5B1F4FFE01E65BFF4F608173
:1056300071818281938120E030E04AEF54E40E943E
:10564000FD10DC01CB01F80180839183A283B38339
:10565000FE01EA5BFF4F608171818281938120E0CE
:1056600030E040E85FE30E940313882344F4FE0126
:10567000EC5BFF4F81E090E09183808364C0FE018A
:10568000EA5BFF4F608171818281938120E03FEF6F
:105690004FE757E40E94A31218160CF043C0FE0116
:1056A000E65BFF4F608171818281938120E030E071
:1056B00040E251E40E94FD10DC01CB018E010C5B45
:1056C0001F4FBC01CD010E944202DC01CB01F80159
:1056D000918380831FC0FE01EE5BFF4F88EC90E05A
:1056E00091838083FE01EE5BFF4F80819181019762
:1056F000F1F7FE01EE5BFF4F91838083DE01AC5B2F
:10570000BF4FFE01EC5BFF4F8081918101971196A5
:105710009C938E93FE01EC5BFF4F808191810097FB
:10572000D1F642C08E010C5B1F4FFE01EA5BFF4FBA
:1057300060817181828193810E944202DC01CB01F0
:10574000F80191838083DE01A05CBF4FFE01EC5B1A
:10575000FF4F8081918111969C938E93FE01E05CB6
:10576000FF4F808191810197F1F7FE01E05CFF4FCF
:105770009183808319C08E01025B1F4FFE01E15BA4
:10578000FF4F60817181828193810E944202DC011E
:10579000CB01F8018083FE01E25BFF4F80818FAF78
:1057A0008FAD8A95F1F78FAFA8E3B0E0E8E3F0E0C2
:1057B00080818D7F8C9380E090E0A8E4B3E48BAF90
:1057C0009CAFADAFBEAF6BAD7CAD8DAD9EAD2BEAEA
:1057D0003AEA4AE250E40E94FD10DC01CB018FABB3
:1057E00098AFA9AFBAAF6FA978AD89AD9AAD20E0F7
:1057F00030E040E85FE30E94031388231CF481E05B
:105800008EAB91C06FA978AD89AD9AAD20E030E044
:105810004FE753E40E94A31218160CF07BC06BAD47
:105820007CAD8DAD9EAD20E030E04AE754E40E94AF
:10583000F711DC01CB018AAB9BABACABBDAB6AA96A
:105840007BA98CA99DA920E030E04AEF54E40E9496
:10585000FD10DC01CB018EA79FA7A8ABB9AB6EA54D
:105860007FA588A999A920E030E040E85FE30E9485
:10587000031388232CF481E090E09DA78CA73FC000
:105880006EA57FA588A999A920E03FEF4FE757E4CF
:105890000E94A31218164CF56AA97BA98CA99DA990
:1058A00020E030E040E251E40E94FD10DC01CB0139
:1058B000BC01CD010E944202DC01CB019DA78CA757
:1058C0000FC088EC90E09BA78AA78AA59BA50197AB
:1058D000F1F79BA78AA78CA59DA501979DA78CA7EB
:1058E0008CA59DA5009769F724C06EA57FA588A902
:1058F00099A90E944202DC01CB019DA78CA78CA52F
:105900009DA599A788A788A599A50197F1F799A7BB
:1059100088A70FC06FA978AD89AD9AAD0E944202E9
:10592000DC01CB018EAB8EA98FA38FA18A95F1F7F5
:105930008FA3A8E3B0E0E8E3F0E08081282F2F7088
:10594000FE01E95AFF4F8081882F90E08295929561
:10595000907F9827807F9827822B8C93A8E3B0E0D4
:10596000E8E3F0E0808182608C9380E090E0A0E842
:10597000BFE38BA39CA3ADA3BEA36BA17CA18DA110
:105980009EA12BEA3AEA4AE250E40E94FD10DC01B3
:10599000CB018F8F98A3A9A3BAA36F8D78A189A1FA
:1059A0009AA120E030E040E85FE30E9403138823DF
:1059B0001CF481E08E8F91C06F8D78A189A19AA18E
:1059C00020E030E04FE753E40E94A31218160CF0D9
:1059D0007BC06BA17CA18DA19EA120E030E04AE7B5
:1059E00054E40E94F711DC01CB018A8F9B8FAC8FAE
:1059F000BD8F6A8D7B8D8C8D9D8D20E030E04AEFD0
:105A000054E40E94FD10DC01CB018E8B9F8BA88F8C
:105A1000B98F6E897F89888D998D20E030E040E8CC
:105A20005FE30E94031388232CF481E090E09D8BB8
:105A30008C8B3FC06E897F89888D998D20E03FEFE8
:105A40004FE757E40E94A31218164CF56A8D7B8D20
:105A50008C8D9D8D20E030E040E251E40E94FD10ED
:105A6000DC01CB01BC01CD010E944202DC01CB0173
:105A70009D8B8C8B0FC088EC90E09B8B8A8B8A89E6
:105A80009B890197F1F79B8B8A8B8C899D89019764
:105A90009D8B8C8B8C899D89009769F724C06E89BA
:105AA0007F89888D998D0E944202DC01CB019D8BFC
:105AB0008C8B8C899D89998B888B88899989019792
:105AC000F1F7998B888B0FC06F8D78A189A19AA16E
:105AD0000E944202DC01CB018E8F8E8D8F878F85D5
